S01B0000446F746D6174726978436F6E74726F6C6C65722E7372656329
S11300000C9434000C9451000C9451000C94510045
S11300100C9451000C9451000C9451000C94510018
S11300200C9451000C9451000C9451000C94510008
S11300300C9451000C9451000C94F8000C94510051
S11300400C9451000C9451000C944C010C945100EC
S11300500C9451000C9451000C9451000C945100D8
S11300600C9451000C94510011241FBECFEFD8E022
S1130070DEBFCDBF11E0A0E0B1E0E0E2F7E002C0F6
S113008005900D92AE30B107D9F723E0AEE0B1E0B0
S113009001C01D92AF35B207E1F70E9461000C94D4
S11300A08E030C94000087B1886387B9449AE1E118
S11300B0F1E029E131E08FEF8193E217F307E1F7F3
S11300C008950E94530060E875E280E090E00E9489
S11300D0A4018FE99FE00197F1F700C000000E949E
S11300E03601789430E052E34DECE1E1F1E080E058
S11300F090E0DC01AA5FBE4F2C91219301968830D9
S11301009105B9F780915403882379F380915403BE
S1130110815080935403E0915D01F0E0539FC0014E
S11301201124805A9E4FEA5FFE4F808380915D01C7
S11301308F5F80935D0180915D01883010F0109293
S11301405D019FEF29E688E1915020408040E1F76E
S113015000C0000091E0930F949F312D1124369537
S113016036953695330F832F880F880F380F931BDE
S1130170392FBBCF449840E050E0E82FF0E0459899
S1130180439898B19F01042E02C0220F331F0A9492
S1130190E2F721703327220F331F220F331F220F60
S11301A0331F292B28B9459A4F5F5F4F48305105BB
S11301B031F720E030E070E04598439848B1CB0136
S11301C0022E02C0880F991F0A94E2F781709927C2
S11301D0880F991F880F991F880F991F842B88B93E
S11301E0459A2F5F3F4F2830310531F7449A0895DF
S11301F01F920F920FB60F9211242F933F934F9398
S11302005F936F937F938F939F93AF93BF93EF937A
S1130210FF9380910E018F5F80930E0180910E01F8
S1130220883010F010920E0180910E01E0910E01C1
S113023060E870E002C0759567958A95E2F7F0E092
S1130240EF5EFE4F80810E94BA00FF91EF91BF9153
S1130250AF919F918F917F916F915F914F913F915A
S11302602F910F900FBE0F901F90189584B5826048
S113027084BD85B5836085BD89EF87BDEEE6F0E07A
S11302808081826080830895E0ECF0E0908195FFA6
S1130290FDCF8093C60008951F920F920FB60F9260
S11302A011242F938F939F93EF93FF938091C60014
S11302B080935F01809110018233E0F590915403A3
S11302C09B30C0F590915F019A3019F590910F0120
S11302D022E3929FF0011124E05AFE4FE80FF11D32
S11302E0108210921001809154038F5F8093540305
S11302F09F5F8DEC989F812D112486958695869518
S1130300880F282F220F220F820F981B90930F0122
S113031011C0E0910F0191E0980F9093100190911A
S11303205F0122E3E29FF0011124E05AFE4FE80F3F
S1130330F11D9083FF91EF919F918F912F910F90D9
S11303400FBE0F901F901895CF92DF92EF92FF92FD
S11303506B017C0160E070E084E491E00E94FF01A5
S1130360E1ECF0E0808188698083E2ECF0E0808158
S11303708660808360E472E48FE090E0A7019601D8
S11303800E94DD01DA01C9010197A109B109892F90
S11303909A2FAB2FBB278093C50021502093C40014
S11303A08091C6008FE99FE00197F1F700C000003B
S11303B0FF90EF90DF90CF900895A1E21A2EAA1B30
S11303C0BB1BFD010DC0AA1FBB1FEE1FFF1FA21701
S11303D0B307E407F50720F0A21BB30BE40BF50BFE
S11303E0661F771F881F991F1A9469F76095709587
S11303F0809590959B01AC01BD01CF0108950F93A9
S11304001F93CF93DF93009731F46115710519F4AD
S113041080E090E03AC08B01EC016EE070E081E096
S113042090E00E944A02FC01892B91F380E88383C7
S11304300115110571F01387028781E88383809188
S1130440550390915603892B21F4F0935603E093BE
S113045055032097C9F0D187C08783818260838345
S11304608091570390915803892B71F4F0935803AA
S1130470E09357038091590390915A03892B21F4F7
S1130480F0935A03E0935903CF01DF91CF911F9169
S11304900F9108950F931F93CF93DF93869F80014D
S11304A0879F100D969F100D1124C8010E946602AB
S11304B0EC01009729F0A80160E070E00E94870336
S11304C0CE01DF91CF911F910F9108950F931F9348
S11304D0CF93DF938230910510F482E090E0E091B5
S11304E05D03F0915E0320E030E0A0E0B0E03097DF
S11304F019F1408151810281138148175907C8F0CD
S11305008417950769F4109731F012960C9312979B
S113051013961C9327C000935D0310935E0322C0BF
S11305202115310519F04217530718F49A01BD013A
S1130530EF01DF01F801DBCF21153105F9F0281BAC
S1130540390B2430310580F48A819B816115710552
S113055021F0FB019383828304C090935E03809314
S11305605D03FE01329644C0FE01E20FF31F819346
S1130570919322503109398328833AC020915B0337
S113058030915C03232B41F420910201309103014B
S113059030935C0320935B032091000130910101AF
S11305A02115310541F42DB73EB740910401509116
S11305B00501241B350BE0915B03F0915C03E2170A
S11305C0F307A0F42E1B3F0B2817390778F0AC0172
S11305D04E5F5F4F2417350748F04E0F5F1F50934F
S11305E05C0340935B038193919302C0E0E0F0E0ED
S11305F0CF01DF91CF911F910F910895CF93DF9396
S1130600009709F481C0FC01329713821282A091F1
S11306105D03B0915E03109781F420813181820FD4
S1130620931F20915B0330915C032817390751F520
S1130630F0935C03E0935B0367C0ED0120E030E0DE
S1130640CE17DF0740F44A815B819E0141155105B5
S1130650F1F0EA01F5CFD383C28340815181840F45
S1130660951FC817D90759F488819981840F951F5C
S11306700296918380838A819B819383828321154F
S1130680310529F4F0935E03E0935D033DC0E90175
S1130690FB83EA8349915991C40FD51FEC17FD07D9
S11306A061F480819181840F951F0296E9019983F9
S11306B08883828193819B838A83E0E0F0E01296B1
S11306C08D919C911397009719F0FD01DC01F7CFF0
S11306D08D919C9111979D012E5F3F4F820F931F27
S11306E020915B0330915C032817390769F4309734
S11306F029F410925E0310925D0302C013821282E9
S1130700B0935C03A0935B03DF91CF910895DC0168
S113071001C06D9341505040E0F70895F894FFCF25
S111072000005F032000FEFEFEFEFEFEFEFE55
S9030000FC
